:100000000C9434000C9451000C9451000C94510049
:100010000C9453000C9451000C9451000C9451001A
:100020000C9451000C9451000C9451000C94480114
:100030000C9451000C9451000C9451000C945100FC
:100040000C9451000C9451000C9451000C945100EC
:100050000C9451000C9451000C9451000C945100DC
:100060000C9451000C94510011241FBECFEFD8E026
:10007000DEBFCDBF11E0A0E0B1E0EAEDF6E002C0E6
:1000800005900D92A43FB107D9F712E0A4EFB1E0BB
:1000900001C01D92A233B107E1F70E947B020C94CC
:1000A0006B030C9400001F920F920FB60F92112455
:1000B0008F939F9386B18093FC018091FC018270A5
:1000C000809300028091FC0180728093FD018091F9
:1000D000FE01882371F480910002882321F081E0E1
:1000E0008093010234C08091FD018823E1F182E018
:1000F00036C09091FE01913089F4809100028823EE
:1001000019F4109201022DC08091FD01882359F14C
:1001100083E0809301029093FF0125C08091FE014E
:10012000823069F480910002882311F083E017C0C7
:100130008091FD018823B9F41092010207C08091DB
:100140000002882339F482E08093010281E08093E9
:10015000FF0109C08091FD01882329F481E080938B
:1001600001021092FF01909101028091FE01981707
:1001700039F081E08093FB01809101028093FE01C0
:100180009F918F910F900FBE0F901F901895419ADD
:10019000459A8091680082608093680080916C002D
:1001A000826280936C00789486B18093FC01809188
:1001B000FC018270809300028091FC018072809328
:1001C000FD018091FD01882339F48091000288238C
:1001D00019F41092FE0117C08091FD01882331F4BB
:1001E00080910002882311F081E00BC08091FD0115
:1001F000882331F080910002882311F482E001C04D
:1002000083E08093FE018091FE01809301020895B6
:10021000EFE6F0E0808182608083E1E8F0E08081B9
:100220008860808378940895CF93DF93EC010097E2
:1002300051F488E893E120E931E0F9013197F1F7D1
:100240000197D9F722C09C01220F331F40E050E0F4
:1002500060E970ED83E090E00E942E033093890006
:1002600020938800D093F701C093F601809181001C
:100270008360809381008091F8019091F90101974A
:10028000D1F71092F9011092F801DF91CF91089502
:100290001F920F920FB60F9211242F933F938F93BB
:1002A0009F9385B190E1892785B98091F401909160
:1002B000F50101969093F5018093F4012091F601E8
:1002C0003091F7012817390754F41092F501109274
:1002D000F40181E090E09093F9018093F8019F91FF
:1002E0008F913F912F910F900FBE0F901F901895F7
:1002F00080E091E00E94B80280E197E220E931E0DD
:10030000F9013197F1F70197D9F781E00E94C40212
:1003100080E060E00E94D4020895CF93DF9380E0F4
:100320000E9417038E5C8930F0F480ED97E020E99D
:1003300031E0F9013197F1F70197D9F7CCEDD1E030
:10034000E991F0E0EE0FFF1FE45FFE4F80819181A5
:100350000E941401809181008C7F8093810081E054
:10036000C13FD80769F7DF91CF91089580E00E94DF
:10037000170381508D3148F480ED97E020E931E09A
:10038000F9013197F1F70197D9F70895FF920F938B
:10039000DF93CF9300D0CDB7DEB78091FA0197E01D
:1003A000899FF02C112481E060E00E94D4028091AA
:1003B000FA018F5C0E94A80201E0EF2DF0E0E45208
:1003C000FE4FE081F0E0EE0FFF1FE855FE4F808109
:1003D00091819A83898380E0602F0E94D402A98151
:1003E000BA818C910E94A802E981FA8181810E94E0
:1003F000A80281E0602F0E94D402A981BA811296DE
:100400008C910E94A802F3940E5F0F30B1F60F900A
:100410000F90CF91DF910F91FF90089580E00E949F
:100420001703982F81508D3188F580ED97E020E9F2
:1004300031E0F9013197F1F70197D9F78091F10196
:100440009091F20102969093F2018093F10140970E
:10045000BCF081E090E09093F2018093F10180E0A4
:1004600060E00E94D4028091FA01882311F481E0B7
:1004700003C0813029F482E08093FA010E94C60112
:1004800080E06091F1010E94D40208959B5995305B
:1004900088F580ED97E020E931E0F9013197F1F737
:1004A0000197D9F78091F1019091F2010297909311
:1004B000F2018093F10197FF18C08FE090E09093D4
:1004C000F2018093F10180E060E00E94D40280910B
:1004D000FA01813019F41092FA0105C0823029F432
:1004E00081E08093FA010E94C60180E06091F101F1
:1004F0000E94D40208950E94DE020E94060381E059
:100500000E94C402249A15B888B1826288B9809189
:100510006F00826080936F0080918100886080937B
:10052000810078940E94C7000E94C60180E061E0CB
:100530000E94D4020E940E02FDCF9BB19F709BB916
:100540009BB1807F892B8BB9299A299A2998089584
:100550001F93182F289A0E949D02812F8295807FD9
:100560000E949D0280E49FE10197F1F71F91089599
:10057000CF93DF93EC0102C00E94A80289918823E7
:10058000D9F7DF91CF9108951F93182F28980E94D3
:100590009D02812F8295807F0E949D0280E49FE1D1
:1005A0000197F1F71F910895882319F4862F805839
:1005B00002C0862F80540E94C4020895209A219A76
:1005C0008AB1806F8AB980E69AEE0197F1F780E3ED
:1005D0000E949D0280E29EE40197F1F780E30E9471
:1005E0009D0280EE91E00197F1F780E30E949D0269
:1005F00080E20E949D0280E49FE10197F1F788E28A
:100600000E94C4028FE00E94C4020895ECE7F0E06B
:10061000808180648083808180628083EAE7F0E06B
:100620008081876080838081806880830895909135
:100630007C00907F90937C0090917C008F70892B40
:1006400080937C0080917A00806480937A0080910E
:100650007A0086FDFCCF80917900089597FB092EE2
:1006600005260ED057FD04D014D00AD0001C38F453
:1006700050954095309521953F4F4F4F5F4F0895CE
:10068000F6F790958095709561957F4F8F4F9F4FAE
:100690000895A1E21A2EAA1BBB1BFD010DC0AA1FC3
:1006A000BB1FEE1FFF1FA217B307E407F50720F0DB
:1006B000A21BB30BE40BF50B661F771F881F991F56
:1006C0001A9469F760957095809590959B01AC019F
:0A06D000BD01CF010895F894FFCF9B
:1006DA004361726F6C204C69616E67000000830091
:1006EA008B0093009C00A500B000B900C400D000A4
:1006FA00DC00E900F70006011501260137014A016D
:10070A005D01720188019F01B801D201EE010B025D
:10071A0020202000432033004323330044203300A9
:10072A004423330045203300462033004623330058
:10073A00472033004723330041203300412333004D
:10074A004220330043203400432334004420340041
:10075A004423340045203400462034004623340024
:10076A004720340047233400412034004123340019
:10077A0042203400432035004001440148014C0125
:10078A005001540158015C016001640168016C0167
:10079A007001740178017C018001840188018C0157
:1007AA009001940198019C01A001A4011111121455
:1007BA001412110F0D0D0F11110F0F000000000080
:0407CA00000100002A
:00000001FF
