:100000000C9434000C9449000C9449000C94490061
:100010000C9449000C9449000C9449000C9449003C
:100020000C9449000C9449000C9449000C944B002A
:100030000C9449000C9449000C9449000C9449001C
:100040000C9449000C9449000C9449000C9449000C
:100050000C9449000C9449000C9449000C944900FC
:100060000C9449000C94490011241FBECFEFD8E036
:10007000DEBFCDBF11E0A0E0B1E0E4EEF4E002C0ED
:1000800005900D92A439B107D9F70E948A000C940B
:1000900070020C9400001F920F920FB60F92112461
:1000A0000F900FBE0F901F90189505966AE070E0B4
:1000B0000E940C02CB0135E303C0232F2A95F1F7F0
:1000C00001972FEF8F3F9207C1F708950F931F936A
:1000D000CF93DF93EC019C0140E050E060E472E4D8
:1000E0008FE090E00E941F0256954795379527951F
:1000F000890109C02C9AC8010E9455002C98C8019A
:100100000E94550021972097A9F7DF91CF911F9169
:100110000F9108954F925F927F928F929F92AF922C
:10012000BF92CF92DF92EF92FF920F931F93DF93D4
:10013000CF93CDB7DEB7E0970FB6F894DEBF0FBE12
:10014000CDBF0E94BC010E94E40181E00E94A20197
:10015000249A88B1826288B9DE011196E8E1F1E063
:1001600080E101900D928150E1F7DE015196E9E2C4
:10017000F1E080E101900D928150E1F7DE0191966E
:10018000EAE3F1E08EE001900D928150E1F718AAC8
:100190001FA680E091E00E94960180E197E220E9AD
:1001A00031E0F9013197F1F70197D9F781E00E9429
:1001B000A20180E060E00E94B2018CE091E00E9428
:1001C000960188E893E120E931E0F9013197F1F7F0
:1001D0000197D9F780E060E00E94B2018E010F5FC5
:1001E0001F4FC8010E94960121E0E22EF12C91E000
:1001F000C92ED12C80E9882E81E0982EB1E24B2EB9
:10020000512C4C0E5D1EA1E1AA2EB12CAC0EBD1ED0
:10021000702E012F80E00E94F501982F81508430CC
:1002200088F580ED97E0F4013197F1F70197D9F760
:1002300082E090E0E80EF91E90E1E916F1040CF47A
:1002400055C080E060E00E94B20181E0C816D10490
:1002500039F4C5010E949601F1E0EF2EF12C43C064
:1002600092E0C916D10421F0E1E0EE2EF12C3EC05F
:10027000C2010E94960171E0E72EF12C63E0C62EC8
:10028000D12C34C09B59953028F680ED97E0F401CD
:100290003197F1F70197D9F78EEF9FEFE80EF91E2E
:1002A000F7FE24C080E060E00E94B20192E0C9162F
:1002B000D10459F4872D902F0E9496015FE0E52E1E
:1002C000F12C41E0C42ED12C11C083E0C816D1041A
:1002D00021F03FE0E32EF12C09C0C5010E949601F8
:1002E0002FE0E22EF12C92E0C92ED12C80E06E2D71
:1002F0000E94B2018FCF9BB19F709BB99BB1807F51
:10030000892B8BB9299A299A299808951F93182F18
:10031000289A0E947B01812F8295807F0E947B0119
:1003200080E49FE10197F1F71F910895CF93DF9348
:10033000EC0102C00E94860189918823D9F7DF91E0
:10034000CF9108951F93182F28980E947B01812F29
:100350008295807F0E947B0180E49FE10197F1F705
:100360001F910895882319F4862F805802C0862F84
:1003700080540E94A2010895209A219A8AB1806F28
:100380008AB980E69AEE0197F1F780E30E947B013B
:1003900080E29EE40197F1F780E30E947B0180EE0A
:1003A00091E00197F1F780E30E947B0180E20E94D7
:1003B0007B0180E49FE10197F1F788E20E94A201AE
:1003C0008FE00E94A2010895ECE7F0E08081806454
:1003D0008083808180628083EAE7F0E080818760AB
:1003E0008083808180688083089590917C00907FD5
:1003F00090937C0090917C008F70892B80937C007F
:1004000080917A00806480937A0080917A0086FDE2
:10041000FCCF80917900089597FB092E07260AD01A
:1004200077FD04D027D006D000201AF4709561958E
:100430007F4F0895F6F7909581959F4F089597FB0C
:10044000092E05260ED057FD04D028D00AD0001C56
:1004500038F450954095309521953F4F4F4F5F4F61
:100460000895F6F790958095709561957F4F8F4F21
:100470009F4F0895AA1BBB1B51E107C0AA1FBB1FBA
:10048000A617B70710F0A61BB70B881F991F5A9520
:10049000A9F780959095BC01CD010895A1E21A2E8F
:1004A000AA1BBB1BFD010DC0AA1FBB1FEE1FFF1F18
:1004B000A217B307E407F50720F0A21BB30BE40B68
:1004C000F50B661F771F881F991F1A9469F76095AF
:1004D0007095809590959B01AC01BD01CF01089569
:0404E000F894FFCFBE
:1004E4004361726F6C204C69616E670073686F754D
:1004F4006C64206D6F7665002045204520462047BA
:10050400204720462045203E003C442043204320F1
:1005140044204520452044203E003C4420442044BF
:1005240020442044204420000000000083008B006D
:1005340093009C00A500B000B900C400D000DC000A
:10054400E900F70006011501260137014A015D01A2
:10055400720188019F01B801D201EE010B02111151
:1005640012141412110F0D0D0F11110F0F000000B2
:040574000000000083
:00000001FF
