:100000000C9434000C9451000C9451000C94510049
:100010000C9453000C9451000C9451000C9451001A
:100020000C9451000C9451000C9451000C94FB0062
:100030000C9451000C9451000C9451000C945100FC
:100040000C9451000C9451000C9451000C945100EC
:100050000C9451000C9451000C9451000C945100DC
:100060000C9451000C94510011241FBECFEFD8E026
:10007000DEBFCDBF11E0A0E0B1E0E8E0F6E002C0F5
:1000800005900D92A43EB107D9F711E0A4EEB1E0BE
:1000900001C01D92A13FB107E1F70E94CA010C9473
:1000A00002030C9400001F920F920FB60F921124BE
:1000B0008F939F9386B18093EB018091EB018270C7
:1000C0008093EF018091EB0180728093EC0180912D
:1000D000ED01882371F48091EF01882321F081E004
:1000E0008093F00134C08091EC018823E1F182E03B
:1000F00036C09091ED01913089F48091EF01882311
:1001000019F41092F0012DC08091EC01882359F16F
:1001100083E08093F0019093EE0125C08091ED0182
:10012000823069F48091EF01882311F083E017C0D9
:100130008091EC018823B9F41092F00107C08091FE
:10014000EF01882339F482E08093F00181E080930D
:10015000EE0109C08091EC01882329F481E08093AD
:10016000F0011092EE019091F0018091ED0198174D
:1001700039F081E08093EA018091F0018093ED01F4
:100180009F918F910F900FBE0F901F901895EFE6E3
:10019000F0E0808182608083E1E8F0E08081886027
:1001A0008083789408950F931F938C019C01220FF4
:1001B000331F40E050E060E970ED83E090E00E9482
:1001C000C50230938900209388001093E7010093C3
:1001D000E601809181008360809381008091E80135
:1001E0009091E9010197D1F71092E9011092E8018D
:1001F0001F910F9108951F920F920FB60F92112425
:100200002F933F938F939F9385B190E1892785B971
:100210008091E4019091E50101969093E50180932E
:10022000E4012091E6013091E7012817390754F4E1
:100230001092E5011092E40181E090E09093E901D1
:100240008093E8019F918F913F912F910F900FBE66
:100250000F901F90189580E091E00E944F0280E17E
:1002600097E220E931E0F9013197F1F70197D9F7E9
:1002700081E00E945B0280E060E00E946B0280EB04
:1002800091E00E944F02089580E00E94AE02982FF4
:1002900081508D3108F03DC080ED97E020E931E0DC
:1002A000F9013197F1F70197D9F78091E001909129
:1002B000E10102969093E1018093E00140971CF1E7
:1002C00081E090E09093E1018093E00180E060E0C4
:1002D0000E946B028091E2019091E30181309105CF
:1002E00019F480EC91E004C0029769F480ED91E08C
:1002F0000E944F028091E2019091E3010196909358
:10030000E3018093E20180E06091E0010E946B02D2
:1003100008959B59953008F03CC080ED97E020E9A6
:1003200031E0F9013197F1F70197D9F78091E001B8
:100330009091E10102979093E1018093E00197FF92
:1003400023C08FE090E09093E1018093E00180E092
:1003500060E00E946B028091E2019091E3018230A3
:10036000910519F480EB91E004C0039769F480ECE7
:1003700091E00E944F028091E2019091E301019788
:100380009093E3018093E20180E06091E0010E949C
:100390006B0208950E9475020E949D0281E00E94F6
:1003A0005B02249A15B888B1826288B9419A459A4D
:1003B0008091680082608093680080916C00826206
:1003C00080936C00789486B18093EB018091EB016F
:1003D00082708093EF018091EB0180728093EC0139
:1003E0008091EC01882339F48091EF01882319F47E
:1003F0001092ED0117C08091EC01882331F48091B7
:10040000EF01882311F081E00BC08091EC0188237B
:1004100031F08091EF01882311F482E001C083E084
:100420008093ED018091ED018093F0010E942B01FA
:1004300080E060E00E946B020E9444018091EA012A
:100440008823D1F38CE091E00E944F021092EA01E0
:100450008091EE01882319F08FE091E002C081E1E4
:1004600091E00E944F02E8CF9BB19F709BB99BB176
:10047000807F892B8BB9299A299A299808951F93EF
:10048000182F289A0E943402812F8295807F0E9423
:10049000340280E49FE10197F1F71F910895CF9313
:1004A000DF93EC0102C00E943F0289918823D9F7B3
:1004B000DF91CF9108951F93182F28980E9434023E
:1004C000812F8295807F0E94340280E49FE1019712
:1004D000F1F71F910895882319F4862F805802C0E0
:1004E000862F80540E945B020895209A219A8AB137
:1004F000806F8AB980E69AEE0197F1F780E30E9457
:10050000340280E29EE40197F1F780E30E94340216
:1005100080EE91E00197F1F780E30E94340280E2DF
:100520000E94340280E49FE10197F1F788E20E9483
:100530005B028FE00E945B020895ECE7F0E08081AF
:1005400080648083808180628083EAE7F0E080813C
:1005500087608083808180688083089590917C008B
:10056000907F90937C0090917C008F70892B80937A
:100570007C0080917A00806480937A0080917A0078
:1005800086FDFCCF80917900089597FB092E052602
:100590000ED057FD04D014D00AD0001C38F450956A
:1005A0004095309521953F4F4F4F5F4F0895F6F797
:1005B00090958095709561957F4F8F4F9F4F0895CF
:1005C000A1E21A2EAA1BBB1BFD010DC0AA1FBB1F57
:1005D000EE1FFF1FA217B307E407F50720F0A21BC9
:1005E000B30BE40BF50B661F771F881F991F1A9436
:1005F00069F760957095809590959B01AC01BD0160
:08060000CF010895F894FFCF2B
:100608004361726F6C204C69616E67004849005500
:10061800004400000083008B0093009C00A500B0FC
:1006280000B900C400D000DC00E900F7000601159D
:1006380001260137014A015D01720188019F01B855
:1006480001D201EE010B02200043004323004423A2
:10065800004500460046230047004723004100416B
:1006680023004200473400470149014B0111014E64
:100678000151015301550158015A015D015F0162A1
:100688000149014B0111014E015101530155015816
:100698000164015D015F0162014901111112141425
:1006A80012110F0D0D0F11110F0F000000000000A7
:1006B8002045204520462047204720462045203E0B
:1006C8003C44204320432044204520452044203EEC
:1006D8003C442020202020202020202020202020D2
:0406E800010001000C
:00000001FF
