:100000000C9434000C9451000C9451000C94510049
:100010000C9453000C9451000C9451000C9451001A
:100020000C9451000C9451000C9451000C94480114
:100030000C9451000C9451000C9451000C945100FC
:100040000C9451000C9451000C9451000C945100EC
:100050000C9451000C9451000C9451000C945100DC
:100060000C9451000C94510011241FBECFEFD8E026
:10007000DEBFCDBF11E0A0E0B1E0E4EBF7E002C0ED
:1000800005900D92A43FB107D9F712E0A4EFB1E0BB
:1000900001C01D92A333B107E1F70E94E6020C9460
:1000A000D8030C9400001F920F920FB60F921124E8
:1000B0008F939F9386B18093FD018091FD018270A3
:1000C000809301028091FD0180728093FE018091F6
:1000D000FF01882371F480910102882321F081E0DF
:1000E0008093020234C08091FE018823E1F182E016
:1000F00036C09091FF01913089F4809101028823EC
:1001000019F4109202022DC08091FE01882359F14A
:1001100083E0809302029093000225C08091FF014A
:10012000823069F480910102882311F083E017C0C6
:100130008091FE018823B9F41092020207C08091D9
:100140000102882339F482E08093020281E08093E7
:10015000000209C08091FE01882329F481E0809388
:10016000020210920002909102028091FF01981702
:1001700039F081E08093FC01809102028093FF01BD
:100180009F918F910F900FBE0F901F901895419ADD
:10019000459A8091680082608093680080916C002D
:1001A000826280936C00789486B18093FD01809187
:1001B000FD018270809301028091FD018072809325
:1001C000FE018091FE01882339F480910102882389
:1001D00019F41092FF0117C08091FE01882331F4B9
:1001E00080910102882311F081E00BC08091FE0113
:1001F000882331F080910102882311F482E001C04C
:1002000083E08093FF018091FF01809302020895B3
:10021000EFE6F0E0808182608083E1E8F0E08081B9
:100220008860808378940895CF93DF93EC010097E2
:1002300051F488E893E120E931E0F9013197F1F7D1
:100240000197D9F722C09C01220F331F40E050E0F4
:1002500060E970ED83E090E00E949B033093890099
:1002600020938800D093F701C093F601809181001C
:100270008360809381008091F8019091F90101974A
:10028000D1F71092F9011092F801DF91CF91089502
:100290001F920F920FB60F9211242F933F938F93BB
:1002A0009F9385B190E1892785B98091F401909160
:1002B000F50101969093F5018093F4012091F601E8
:1002C0003091F7012817390754F41092F501109274
:1002D000F40181E090E09093F9018093F8019F91FF
:1002E0008F913F912F910F900FBE0F901F901895F7
:1002F00080E091E00E94250380E197E220E931E06F
:10030000F9013197F1F70197D9F781E00E943103A4
:1003100080E060E00E9441030895CF93DF9380E086
:100320000E9484038E5C8930F0F480ED97E020E930
:1003300031E0F9013197F1F70197D9F7CCEDD1E030
:10034000E991F0E0EE0FFF1FE45FFE4F80819181A5
:100350000E941401809181008C7F8093810081E054
:10036000C13FD80769F7DF91CF91089580E00E94DF
:10037000840381508D3148F480ED97E020E931E02D
:10038000F9013197F1F70197D9F708950F931F936A
:100390008091FC01882381F11092FC018091000280
:1003A000882351F18091FB01A82FB0E0A452BE4FE9
:1003B0008C91E82FF0E0E931F105F4F48F5F8C9334
:1003C000EE0FFF1FE655FE4F00811181F80180817D
:1003D0000E941503F80181810E94150381E060915C
:1003E000F1010E944103F80182810E94150380E01F
:1003F0006091F1010E9441031F910F910895FF92B6
:100400000F93DF93CF9300D0CDB7DEB70091FA0101
:1004100081E00E94310381E060E00E94410380910D
:10042000FA018F5C0E9415038091FA01823038F442
:1004300080E06FE00E9441038EE30E9415038091EB
:10044000FA018150823038F480E060E00E9441037C
:100450008CE30E94150387E0089FF02C112401E033
:10046000EF2DF0E0E452FE4FE081F0E0EE0FFF1FD1
:10047000E855FE4F808191819A83898380E0602FC7
:100480000E944103A981BA818C910E941503E981E0
:10049000FA8181810E94150381E0602F0E9441034F
:1004A000A981BA8112968C910E941503F3940E5F74
:1004B0000F30B1F60F900F90CF91DF910F91FF9019
:1004C000089580E00E948403982F81508D3108F0B8
:1004D0003EC080ED97E020E931E0F9013197F1F776
:1004E0000197D9F72091F1013091F2012E5F3F4F32
:1004F0003093F2012093F1018091FB018F5F809393
:10050000FB0120313105ECF081E090E09093F201A5
:100510008093F10180E060E00E9441038091FA0144
:10052000882329F481E08093FA0187E006C08130B6
:1005300041F482E08093FA018EE08093FB010E94F7
:10054000FF0180E06091F1010E94410308959B59F1
:100550009530D8F580ED97E020E931E0F901319749
:10056000F1F70197D9F72091F1013091F201225072
:1005700030403093F2012093F1018091FB018150D2
:100580008093FB0137FF1CC08FE090E09093F20155
:100590008093F10180E060E00E9441038091FA01C4
:1005A000813021F41092FA0188E006C0823041F4D3
:1005B00081E08093FA018FE08093FB010E94FF01AC
:1005C00080E06091F1010E94410308950E944B0375
:1005D0000E94730381E00E943103249A15B888B108
:1005E000826288B980916F00826080936F008091F1
:1005F000810088608093810078940E94C7000E94E7
:10060000FF0180E061E00E9441030E9461020E94BC
:10061000C601FBCF9BB19F709BB99BB1807F892B9B
:100620008BB9299A299A299808951F93182F289AE7
:100630000E940A03812F8295807F0E940A0380E432
:100640009FE10197F1F71F910895CF93DF93EC019C
:1006500002C00E94150389918823D9F7DF91CF91B9
:1006600008951F93182F28980E940A03812F8295BE
:10067000807F0E940A0380E49FE10197F1F71F91B8
:100680000895882319F4862F805802C0862F80543D
:100690000E9431030895209A219A8AB1806F8AB905
:1006A00080E69AEE0197F1F780E30E940A0380E268
:1006B0009EE40197F1F780E30E940A0380EE91E047
:1006C0000197F1F780E30E940A0380E20E940A0387
:1006D00080E49FE10197F1F788E20E9431038FE007
:1006E0000E9431030895ECE7F0E08081806480830C
:1006F000808180628083EAE7F0E080818760808388
:10070000808180688083089590917C00907F909391
:100710007C0090917C008F70892B80937C0080916D
:100720007A00806480937A0080917A0086FDFCCF05
:1007300080917900089597FB092E05260ED057FD6C
:1007400004D014D00AD0001C38F450954095309550
:1007500021953F4F4F4F5F4F0895F6F79095809545
:10076000709561957F4F8F4F9F4F0895A1E21A2E8C
:10077000AA1BBB1BFD010DC0AA1FBB1FEE1FFF1F45
:10078000A217B307E407F50720F0A21BB30BE40B95
:10079000F50B661F771F881F991F1A9469F76095DC
:1007A0007095809590959B01AC01BD01CF01089596
:0407B000F894FFCFEB
:1007B4004361726F6C204C69616E670000008300B6
:1007C4008B0093009C00A500B000B900C400D000C9
:1007D400DC00E900F70006011501260137014A0192
:1007E4005D01720188019F01B801D201EE010B0283
:1007F40020202000432033004323330044203300CF
:10080400442333004520330046203300462333007D
:100814004720330047233300412033004123330072
:100824004220330043203400432334004420340066
:100834004423340045203400462034004623340049
:10084400472034004723340041203400412334003E
:1008540042203400432035004001440148014C014A
:100864005001540158015C016001640168016C018C
:100874007001740178017C018001840188018C017C
:100884009001940198019C01A001A401111112147A
:100894001412110F0D0D0F11110F0F0000000000A5
:0408A400000100004F
:00000001FF
