:100000000C9434000C9451000C9451000C94510049
:100010000C9451000C9451000C9451000C9451001C
:100020000C9451000C9451000C9451000C948700D6
:100030000C9451000C9451000C9451000C945100FC
:100040000C9451000C9451000C9451000C945100EC
:100050000C9451000C9451000C9451000C945100DC
:100060000C9451000C94510011241FBECFEFD8E026
:10007000DEBFCDBF11E0A0E0B1E0EEE5F3E002C0ED
:1000800005900D92A635B107D9F711E0A6E5B1E0CC
:1000900001C01D92AC35B107E1F70E94B7000C9486
:1000A000AD010C940000EFE6F0E080818260808377
:1000B000E1E8F0E0808188608083789408950F9370
:1000C0001F938C019C01220F331F40E050E060E938
:1000D00070ED83E090E00E947001309389002093DE
:1000E000880010935901009358018091810083602A
:1000F0008093810080915A0190915B010197D1F723
:1001000010925B0110925A011F910F9108951F9256
:100110000F920FB60F9211242F933F938F939F93BB
:1001200085B190E1892785B9809156019091570159
:100130000196909357018093560120915801309178
:1001400059012817390754F410925701109256019B
:1001500081E090E090935B0180935A019F918F9191
:100160003F912F910F900FBE0F901F901895CF9336
:10017000DF930E9420010E94480181E00E94060155
:10018000249A15B888B1826288B980916F00826024
:1001900080936F00809181008860809381007894C3
:1001A00080E091E00E94FA00CCE0D1E08991999141
:1001B0000E945F0081E0C633D807C1F7FFCF9BB133
:1001C0009F709BB99BB1807F892B8BB9299A299A03
:1001D000299808951F93182F289A0E94DF00812FD5
:1001E0008295807F0E94DF0080E49FE10197F1F714
:1001F0001F910895CF93DF93EC0102C00E94EA00A3
:1002000089918823D9F7DF91CF9108951F93182FF3
:1002100028980E94DF00812F8295807F0E94DF0056
:1002200080E49FE10197F1F71F910895882319F465
:10023000862F805802C0862F80540E9406010895A0
:10024000209A219A8AB1806F8AB980E69AEE019746
:10025000F1F780E30E94DF0080E29EE40197F1F76E
:1002600080E30E94DF0080EE91E00197F1F780E3E8
:100270000E94DF0080E20E94DF0080E49FE101979E
:10028000F1F788E20E9406018FE00E9406010895BE
:10029000ECE7F0E0808180648083808180628083ED
:1002A000EAE7F0E0808187608083808180688083D6
:1002B000089590917C00907F90937C0090917C00B9
:1002C0008F70892B80937C0080917A00806480936A
:1002D0007A0080917A0086FDFCCF809179000895A4
:1002E00097FB092E05260ED057FD04D014D00AD056
:1002F000001C38F450954095309521953F4F4F4F55
:100300005F4F0895F6F790958095709561957F4FB2
:100310008F4F9F4F0895A1E21A2EAA1BBB1BFD0110
:100320000DC0AA1FBB1FEE1FFF1FA217B307E407D4
:10033000F50720F0A21BB30BE40BF50B661F771F2C
:10034000881F991F1A9469F760957095809590950C
:0E0350009B01AC01BD01CF010895F894FFCFD1
:10035E004361726F6C204C69616E67000000830010
:10036E008B0093009C00A500B000B900C400D00023
:10037E00DC00E900F70006011501260137014A01EC
:10038E005D01720188019F01B801D201EE010B02DD
:10039E00111112141412110F0D0D0F11110F0F0058
:0603AE0000000000000049
:00000001FF
