:100000000C9434000C9451000C9451000C94510049
:100010000C9416030C9451000C9451000C94510054
:100020000C9451000C9451000C9451000C949300CA
:100030000C9451000C9451000C9451000C945100FC
:100040000C9451000C9451000C9451000C945100EC
:100050000C9451000C9451000C9451000C945100DC
:100060000C9451000C94510011241FBECFEFD8E026
:10007000DEBFCDBF11E0A0E0B1E0E8EAF8E002C0E9
:1000800005900D92A43FB107D9F712E0A4EFB1E0BB
:1000900001C01D92A834B107E1F70E9413020C942D
:1000A00052040C940000EFE6F0E0808182608083CF
:1000B000E1E8F0E080818860808378940895CF93B0
:1000C000DF93EC01009751F488E893E120E931E0F7
:1000D000F9013197F1F70197D9F722C09C01220F5E
:1000E000331F40E050E060E970ED83E090E00E9453
:1000F000D4033093890020938800D093F701C093F4
:10010000F601809181008360809381008091F801E5
:100110009091F9010197D1F71092F9011092F8012D
:10012000DF91CF9108951F920F920FB60F92112475
:100130002F933F938F939F9385B190E1892785B942
:100140008091F4019091F50101969093F5018093CF
:10015000F4012091F6013091F7012817390754F482
:100160001092F5011092F40181E090E09093F90172
:100170008093F8019F918F913F912F910F900FBE27
:100180000F901F901895089580E091E00E945F0203
:1001900080E197E220E931E0F9013197F1F7019729
:1001A000D9F781E00E946B0280E060E00E947B0250
:1001B0000895CF93DF9380E00E94BE028E5C893069
:1001C00030F580ED97E020E931E0F9013197F1F762
:1001D0000197D9F7CCEDD1E0E991F0E0EE0FFF1FE8
:1001E000E45FFE4F808191810E945F0080918100D9
:1001F0008C7F8093810081E0C13FD80769F7CE01F1
:10020000459764E670E045E150E00E943004DF91DC
:10021000CF910895FF920F93DF93CF9300D0CDB786
:10022000DEB70091FA0181E00E946B0281E060E09C
:100230000E947B028091FA018F5C0E944F028091A4
:10024000FA01823038F480E06FE00E947B028EE396
:100250000E944F028091FA018150823038F480E090
:1002600060E00E947B028CE30E944F0287E0089FBF
:10027000F02C112401E0EF2DF0E0E452FE4FE0817C
:10028000F0E0EE0FFF1FE855FE4F808191819A83C9
:10029000898380E0602F0E947B02A981BA818C91C2
:1002A0000E944F02E981FA8181810E944F0281E020
:1002B000602F0E947B02A981BA8112968C910E94C4
:1002C0004F02F3940E5F0F30B1F60F900F90CF9165
:1002D000DF910F91FF90089580E00E94BE02982F59
:1002E00081508D3120F08D528E3008F03EC080ED6F
:1002F00097E020E931E0F9013197F1F70197D9F75B
:100300002091F1013091F2012E5F3F4F3093F201C5
:100310002093F1018091FB018F5F8093FB012031DD
:100320003105ECF081E090E09093F2018093F101CF
:1003300080E060E00E947B028091FA01882329F42A
:1003400081E08093FA0187E006C0813041F482E0C9
:100350008093FA018EE08093FB010E940A0180E005
:100360006091F1010E947B020895892F8B5985309D
:1003700018F090569331D8F580ED97E020E931E000
:10038000F9013197F1F70197D9F72091F1013091F7
:10039000F201225030403093F2012093F10180911C
:1003A000FB0181508093FB0137FF1CC08FE090E080
:1003B0009093F2018093F10180E060E00E947B0263
:1003C0008091FA01813021F41092FA0188E006C090
:1003D000823041F481E08093FA018FE08093FB0149
:1003E0000E940A0180E06091F1010E947B02089561
:1003F0008DEF91E064E670E045E150E00E9420045A
:10040000EDEFF1E080818A3168F4319682E0E231EB
:10041000F807C1F775978CED91E0BF0145E150E019
:100420000E94110408950E9485020E94AD0281E09D
:100430000E946B02249A15B888B1826288B98091B3
:100440006F00826080936F0080918100886080934C
:10045000810078940E94D502239A2B9880E00E9414
:10046000BE028B3F10F00E94F8010E94C4000E945F
:100470000A0180E061E00E947B020E946C010E9400
:100480008A030E94D900F9CF9BB19F709BB99BB1A1
:10049000807F892B8BB9299A299A299808951F93CF
:1004A000182F289A0E944402812F8295807F0E94F3
:1004B000440280E49FE10197F1F71F910895CF93E3
:1004C000DF93EC0102C00E944F0289918823D9F783
:1004D000DF91CF9108951F93182F28980E9444020E
:1004E000812F8295807F0E94440280E49FE10197E2
:1004F000F1F71F910895882319F4862F805802C0C0
:10050000862F80540E946B020895209A219A8AB106
:10051000806F8AB980E69AEE0197F1F780E30E9436
:10052000440280E29EE40197F1F780E30E944402D6
:1005300080EE91E00197F1F780E30E94440280E2AF
:100540000E94440280E49FE10197F1F788E20E9453
:100550006B028FE00E946B020895ECE7F0E080816F
:1005600080648083808180628083EAE7F0E080811C
:1005700087608083808180688083089590917C006B
:10058000907F90937C0090917C008F70892B80935A
:100590007C0080917A00806480937A0080917A0058
:1005A00086FDFCCF809179000895419A459A80910B
:1005B000680082608093680080916C008262809302
:1005C0006C00789486B180934202809142028270DE
:1005D0008093460280914202807280934302809110
:1005E0004302882339F480914602882319F410923B
:1005F000440217C080914302882331F4809146025F
:10060000882311F081E00BC080914302882331F0F0
:1006100080914602882311F482E001C083E0809338
:100620004402809144028093470208951F920F92E2
:100630000FB60F9211248F939F9386B1809342023D
:1006400080914202827080934602809142028072C1
:100650008093430280914402882371F48091460282
:10066000882321F081E08093470234C080914302C7
:100670008823E1F182E036C090914402913089F400
:1006800080914602882319F4109247022DC0809170
:100690004302882359F183E08093470290934502F7
:1006A00025C080914402823069F4809146028823FB
:1006B00011F083E017C0809143028823B9F41092AF
:1006C000470207C080914602882339F482E0809374
:1006D000470281E08093450209C08091430288234C
:1006E00029F481E0809347021092450290914702DD
:1006F00080914402981739F081E08093FC01809149
:100700004702809344029F918F910F900FBE0F90EC
:100710001F9018950F931F938091FC01882309F473
:1007200040C01092FC01809145029091FB0188230A
:1007300089F0A92FB0E0A452BE4F8C91E82FF0E0D1
:10074000E931F10574F58F5F8C93EE0FFF1FE655CD
:10075000FE4F0FC0A92FB0E0A452BE4F8C91E82FDE
:10076000F0E03097F1F081508C93EE0FFF1FEA55C7
:10077000FE4F00811181F80180810E944F02F80133
:1007800081810E944F0281E06091F1010E947B0211
:10079000F80182810E944F0280E06091F1010E9485
:1007A0007B021F910F91089597FB092E05260ED00D
:1007B00057FD04D014D00AD0001C38F45095409551
:1007C000309521953F4F4F4F5F4F0895F6F7909525
:1007D0008095709561957F4F8F4F9F4F0895A1E24F
:1007E0001A2EAA1BBB1BFD010DC0AA1FBB1FEE1FAB
:1007F000FF1FA217B307E407F50720F0A21BB30BF6
:10080000E40BF50B661F771F881F991F1A9469F771
:1008100060957095809590959B01AC01BD01CF01CD
:100820000895FB01DC014150504048F001900D92C9
:100830000020C9F701C01D9241505040E0F70895D3
:10084000DC01CB01FC01F999FECF06C0F2BDE1BD90
:10085000F89A319600B40D9241505040B8F708957F
:10086000DC01A40FB51F4150504048F0CB01840F6C
:10087000951F2E910E94410441505040D0F7089599
:10088000262FF999FECF92BD81BDF89A019700B449
:10089000021639F01FBA20BD0FB6F894FA9AF99AE9
:0808A0000FBE0895F894FFCF8C
:1008A8004361726F6C204C69616E670000008300C1
:1008B8008B0093009C00A500B000B900C400D000D4
:1008C800DC00E900F70006011501260137014A019D
:1008D8005D01720188019F01B801D201EE010B028E
:1008E80020202000432033004323330044203300DA
:1008F8004423330045203300462033004623330089
:10090800472033004723330041203300412333007D
:100918004220330043203400432334004420340071
:100928004423340045203400462034004623340054
:100938004720340047233400412034004123340049
:1009480042203400432035004001440148014C0155
:100958005001540158015C016001640168016C0197
:100968007001740178017C018001840188018C0187
:100978009001940198019C01A001A4011111121485
:100988001412110F0D0D0F11110F0F0000000000B0
:04099800000100005A
:00000001FF
