:100000000C9434000C9451000C9451000C94510049
:100010000C9446030C9451000C9451000C94510024
:100020000C9451000C9451000C9451000C949300CA
:100030000C9451000C9451000C9451000C945100FC
:100040000C9451000C9451000C9451000C945100EC
:100050000C9451000C9451000C9451000C945100DC
:100060000C9451000C94510011241FBECFEFD8E026
:10007000DEBFCDBF11E0A0E0B1E0E6E5F9E002C0EF
:1000800005900D92A43FB107D9F712E0A4EFB1E0BB
:1000900001C01D92A831B107E1F70E94D8010C946C
:1000A000A9040C940000EFE6F0E080818260808378
:1000B000E1E8F0E080818860808378940895CF93B0
:1000C000DF93EC01009751F488E893E120E931E0F7
:1000D000F9013197F1F70197D9F722C09C01220F5E
:1000E000331F40E050E060E970ED83E090E00E9453
:1000F00017043093890020938800D093F701C093B0
:10010000F601809181008360809381008091F801E5
:100110009091F9010197D1F71092F9011092F8012D
:10012000DF91CF9108951F920F920FB60F92112475
:100130002F933F938F939F9385B190E1892785B942
:100140008091F4019091F50101969093F5018093CF
:10015000F4012091F6013091F7012817390754F482
:100160001092F5011092F40181E090E09093F90172
:100170008093F8019F918F913F912F910F900FBE27
:100180000F901F901895E0EBF0E0808183688083EA
:10019000E1EBF0E08081816080837894089580E0D5
:1001A00091E00E942D0280E197E220E931E0F9011F
:1001B0003197F1F70197D9F781E00E94390280E089
:1001C00060E00E94490208950F931F93CF93DF933D
:1001D00080E00E94EE028E5C893008F03DC080ED28
:1001E00097E020E931E0F9013197F1F70197D9F76C
:1001F000239A0CED11E0C0E0D0E0CE0165E170E0A3
:100200000E9404046093B300D801ED918D01F0E0E9
:10021000EE0FFF1FE45FFE4F808191810E945F001F
:10022000809181008C7F80938100C057DE4FB0E2C7
:10023000C03DDB0711F723988CED91E064E670E098
:1002400045E150E00E9487048CED91E064E670E0A7
:1002500045E150E00E948704DF91CF911F910F91FB
:10026000089580E00E94EE02982F81508D3120F099
:100270008D528E3008F03EC080ED97E020E931E0ED
:10028000F9013197F1F70197D9F72091F1013091F8
:10029000F2012E5F3F4F3093F2012093F1018091E4
:1002A000FB018F5F8093FB0120313105ECF081E091
:1002B00090E09093F2018093F10180E060E00E9471
:1002C00049028091FA01882329F481E08093FA01A0
:1002D00087E006C0813041F482E08093FA018EE02D
:1002E0008093FB010E94530280E06091F1010E9423
:1002F00049020895892F8B59853018F09056933113
:10030000D8F580ED97E020E931E0F9013197F1F778
:100310000197D9F72091F1013091F201225030403C
:100320003093F2012093F1018091FB018150809381
:10033000FB0137FF1CC08FE090E09093F2018093A7
:10034000F10180E060E00E9449028091FA01813071
:1003500021F41092FA0187E006C0823041F481E076
:100360008093FA018EE08093FB010E94530280E0AB
:100370006091F1010E94490208958DEF91E064E6D9
:1003800070E045E150E00E947704EDEFF1E08081FC
:100390008A3168F4319682E0E231F807C1F7759747
:1003A0008CED91E0BF0145E150E00E9468040895A2
:1003B0000E94B5020E94DD0281E00E943902249A67
:1003C00015B888B1826288B980916F00826080938D
:1003D0006F008091810088608093810078940E94F2
:1003E00005038091B00083688093B0008091B100D4
:1003F00081608093B100789480E00E94EE028B3F90
:1004000010F00E94BD010E94CF000E94530280E0C4
:1004100061E00E9449020E9431010E94BA030E94D9
:10042000E400F9CF9BB19F709BB99BB1807F892B72
:100430008BB9299A299A299808951F93182F289AD9
:100440000E941202812F8295807F0E94120280E416
:100450009FE10197F1F71F910895CF93DF93EC018E
:1004600002C00E941D0289918823D9F7DF91CF91A4
:1004700008951F93182F28980E941202812F8295A9
:10048000807F0E94120280E49FE10197F1F71F91A3
:100490000895882319F4862F805802C0862F80542F
:1004A0000E9439020895FF920F93DF93CF9300D0FB
:1004B000CDB7DEB70091FA0181E00E94390281E0F8
:1004C00060E00E9449028091FA018F5C0E941D0247
:1004D0008091FA01823038F480E06FE00E94490296
:1004E0008EE30E941D028091FA018150823038F41F
:1004F00080E060E00E9449028CE30E941D0287E0D8
:10050000089FF02C112401E0EF2DF0E0E452FE4FA3
:10051000E081F0E0EE0FFF1FE855FE4F80819181F2
:100520009A83898380E0602F0E944902A981BA8161
:100530008C910E941D02E981FA8181810E941D0235
:1005400081E0602F0E944902A981BA8112968C91A4
:100550000E941D02F3940E5F0F30B1F60F900F90C2
:10056000CF91DF910F91FF900895209A219A8AB13F
:10057000806F8AB980E69AEE0197F1F780E30E94D6
:10058000120280E29EE40197F1F780E30E941202DA
:1005900080EE91E00197F1F780E30E94120280E281
:1005A0000E94120280E49FE10197F1F788E20E9425
:1005B00039028FE00E9439020895ECE7F0E0808173
:1005C00080648083808180628083EAE7F0E08081BC
:1005D00087608083808180688083089590917C000B
:1005E000907F90937C0090917C008F70892B8093FA
:1005F0007C0080917A00806480937A0080917A00F8
:1006000086FDFCCF809179000895419A459A8091AA
:10061000680082608093680080916C0082628093A1
:100620006C00789486B180931202809112028270DD
:10063000809316028091120280728093130280913F
:100640001302882339F480911602882319F410923A
:10065000140217C080911302882331F4809116028E
:10066000882311F081E00BC080911302882331F0C0
:1006700080911602882311F482E001C083E0809308
:100680001402809114028093170208951F920F9212
:100690000FB60F9211248F939F9386B1809312020D
:1006A00080911202827080931602809112028072F1
:1006B0008093130280911402882371F480911602B2
:1006C000882321F081E08093170234C080911302C7
:1006D0008823E1F182E036C090911402913089F4D0
:1006E00080911602882319F4109217022DC0809170
:1006F0001302882359F183E0809317029093150227
:1007000025C080911402823069F4809116028823FA
:1007100011F083E017C0809113028823B9F410927E
:10072000170207C080911602882339F482E0809373
:10073000170281E08093150209C08091130288237B
:1007400029F481E08093170210921502909117020C
:1007500080911402981739F081E08093FC01809118
:100760001702809314029F918F910F900FBE0F90EC
:100770001F9018950F931F938091FC01882309F413
:1007800040C01092FC01809115029091FB018823DA
:1007900089F0A92FB0E0A452BE4F8C91E82FF0E071
:1007A000E931F10574F58F5F8C93EE0FFF1FE6556D
:1007B000FE4F0FC0A92FB0E0A452BE4F8C91E82F7E
:1007C000F0E03097F1F081508C93EE0FFF1FEA5567
:1007D000FE4F00811181F80180810E941D02F80105
:1007E00081810E941D0281E06091F1010E94490215
:1007F000F80182810E941D0280E06091F1010E9457
:1008000049021F910F91089597FB092E07260AD0E0
:1008100077FD04D027D006D000201AF4709561959A
:100820007F4F0895F6F7909581959F4F089597FB18
:10083000092E05260ED057FD04D028D00AD0001C62
:1008400038F450954095309521953F4F4F4F5F4F6D
:100850000895F6F790958095709561957F4F8F4F2D
:100860009F4F0895AA1BBB1B51E107C0AA1FBB1FC6
:10087000A617B70710F0A61BB70B881F991F5A952C
:10088000A9F780959095BC01CD010895A1E21A2E9B
:10089000AA1BBB1BFD010DC0AA1FBB1FEE1FFF1F24
:1008A000A217B307E407F50720F0A21BB30BE40B74
:1008B000F50B661F771F881F991F1A9469F76095BB
:1008C0007095809590959B01AC01BD01CF01089575
:1008D000FB01DC014150504048F001900D92002096
:1008E000C9F701C01D9241505040E0F70895DC0166
:1008F000CB01FC01F999FECF06C0F2BDE1BDF89A2B
:10090000319600B40D9241505040B8F70895DC0183
:10091000A40FB51F4150504048F0CB01840F951FE4
:100920002E910E94980441505040D0F70895262FF0
:10093000F999FECF92BD81BDF89A019700B40216D5
:1009400039F01FBA20BD0FB6F894FA9AF99A0FBE83
:060950000895F894FFCFAA
:100956004361726F6C204C69616E67000000830012
:100966008B0093009C00A500B000B900C400D00025
:10097600DC00E900F70006011501260137014A01EE
:100986005D01720188019F01B801D201EE010B02DF
:10099600202020004320330043233300442033002B
:1009A60044233300452033004620330046233300DA
:1009B60047203300472333004120330041233300CF
:1009C60042203300432034004323340044203400C3
:1009D60044233400452034004620340046233400A6
:1009E600472034004723340041203400412334009B
:1009F60042203400432035004001440148014C01A7
:100A06005001540158015C016001640168016C01E8
:100A16007001740178017C018001840188018C01D8
:100A26009001940198019C01A001A40111111214D6
:100A36001412110F0D0D0F11110F0F000000000001
:040A460000010000AB
:00000001FF
