:100000000C9434000C9451000C9451000C94510049
:100010000C9434030C9451000C9451000C94510036
:100020000C9451000C9451000C9451000C949500C8
:100030000C9451000C9451000C9451000C945100FC
:100040000C9451000C9451000C9451000C945100EC
:100050000C9451000C9451000C9451000C945100DC
:100060000C9451000C94510011241FBECFEFD8E026
:10007000DEBFCDBF11E0A0E0B1E0E4EEF8E002C0E9
:1000800005900D92A43FB107D9F712E0A4EFB1E0BB
:1000900001C01D92A831B107E1F70E94CF010C9475
:1000A00070040C940000EFE6F0E0808182608083B1
:1000B000E1E8F0E080818860808378940895CF93B0
:1000C000DF93EC01009751F488E893E120E931E0F7
:1000D000F9013197F1F70197D9F724C09C01220F5C
:1000E000331F40E050E060E970ED83E090E00E9453
:1000F000F2033093890020938800D093F701C093D6
:10010000F601C093B30080918100836080938100E9
:100110008091F8019091F9010197D1F71092F901BE
:100120001092F801DF91CF9108951F920F920FB6B0
:100130000F9211242F933F938F939F9385B190E15A
:10014000892785B98091F4019091F50101969093EA
:10015000F5018093F4012091F6013091F701281701
:10016000390754F41092F5011092F40181E090E007
:100170009093F9018093F8019F918F913F912F9176
:100180000F900FBE0F901F9018958FEF8093B300C4
:10019000E0EBF0E0808183608083E1EBF0E0808140
:1001A000816080837894089580E091E00E941B0232
:1001B00080E197E220E931E0F9013197F1F7019709
:1001C000D9F781E00E94270280E060E00E943702B8
:1001D00008950F931F93CF93DF9380E00E94DC027A
:1001E0008E5C893080F5239A80ED97E020E931E03C
:1001F000F9013197F1F70197D9F7CCEDD1E0E99109
:10020000F0E0EE0FFF1FE45FFE4F808191810E94BE
:100210005F00809181008C7F8093810081E0C13FED
:10022000D80769F78E0105511040C80164E670E0F7
:1002300045E150E00E944E04C80164E670E045E1EB
:1002400050E00E944E04DF91CF911F910F910895CD
:1002500080E00E94DC02982F81508D3120F08D5279
:100260008E3008F03EC080ED97E020E931E0F901E2
:100270003197F1F70197D9F72091F1013091F2010F
:100280002E5F3F4F3093F2012093F1018091FB01EB
:100290008F5F8093FB0120313105ECF081E090E02D
:1002A0009093F2018093F10180E060E00E943702B8
:1002B0008091FA01882329F481E08093FA0187E094
:1002C00006C0813041F482E08093FA018EE0809391
:1002D000FB010E94410280E06091F1010E9437021F
:1002E0000895892F8B59853018F090569331D8F5A1
:1002F00080ED97E020E931E0F9013197F1F70197BE
:10030000D9F72091F1013091F20122503040309321
:10031000F2012093F1018091FB0181508093FB0158
:1003200037FF1CC08FE090E09093F2018093F101C1
:1003300080E060E00E9437028091FA01813021F470
:100340001092FA0188E006C0823041F481E0809387
:10035000FA018FE08093FB010E94410280E06091EE
:10036000F1010E94370208958DEF91E064E670E09C
:1003700045E150E00E943E04EDEFF1E080818A31DA
:1003800068F4319682E0E231F807C1F775978CED99
:1003900091E0BF0145E150E00E942F0408950E94C2
:1003A000A3020E94CB0281E00E942702249A15B882
:1003B00088B1826288B980916F00826080936F00FB
:1003C0008091810088608093810078940E94F3027C
:1003D0000E94C50080E00E94DC028B3F10F00E946A
:1003E000B4010E94D4000E94410280E061E00E94BA
:1003F00037020E9428010E94A8030E94E900F9CF59
:100400009BB19F709BB99BB1807F892B8BB9299A37
:10041000299A299808951F93182F289A0E9400025C
:10042000812F8295807F0E94000280E49FE10197E6
:10043000F1F71F910895CF93DF93EC0102C00E9462
:100440000B0289918823D9F7DF91CF9108951F93EB
:10045000182F28980E940002812F8295807F0E9489
:10046000000280E49FE10197F1F71F91089588232E
:1004700019F4862F805802C0862F80540E942702CC
:100480000895FF920F93DF93CF9300D0CDB7DEB7DF
:100490000091FA0181E00E94270281E060E00E9461
:1004A00037028091FA018F5C0E940B028091FA0161
:1004B000823038F480E06FE00E9437028EE30E94C1
:1004C0000B028091FA018150823038F480E060E0C4
:1004D0000E9437028CE30E940B0287E0089FF02CF9
:1004E000112401E0EF2DF0E0E452FE4FE081F0E056
:1004F000EE0FFF1FE855FE4F808191819A8389831B
:1005000080E0602F0E943702A981BA818C910E94FD
:100510000B02E981FA8181810E940B0281E0602F48
:100520000E943702A981BA8112968C910E940B0217
:10053000F3940E5F0F30B1F60F900F90CF91DF91D3
:100540000F91FF900895209A219A8AB1806F8AB9FD
:1005500080E69AEE0197F1F780E30E94000280E2C4
:100560009EE40197F1F780E30E94000280EE91E0A3
:100570000197F1F780E30E94000280E20E940002EE
:1005800080E49FE10197F1F788E20E9427028FE063
:100590000E9427020895ECE7F0E080818064808368
:1005A000808180628083EAE7F0E0808187608083D9
:1005B000808180688083089590917C00907F9093E3
:1005C0007C0090917C008F70892B80937C008091BF
:1005D0007A00806480937A0080917A0086FDFCCF57
:1005E000809179000895419A459A809168008260CF
:1005F0008093680080916C00826280936C00789494
:1006000086B180931202809112028270809316024A
:1006100080911202807280931302809113028823CA
:1006200039F480911602882319F41092140217C02D
:1006300080911302882331F480911602882311F0EF
:1006400081E00BC080911302882331F08091160263
:10065000882311F482E001C083E08093140280912A
:1006600014028093170208951F920F920FB60F92F3
:1006700011248F939F9386B180931202809112026E
:10068000827080931602809112028072809313020E
:1006900080911402882371F480911602882321F03E
:1006A00081E08093170234C0809113028823E1F126
:1006B00082E036C090911402913089F48091160244
:1006C000882319F4109217022DC0809113028823F9
:1006D00059F183E0809317029093150225C0809111
:1006E0001402823069F480911602882311F083E0AD
:1006F00017C0809113028823B9F41092170207C023
:1007000080911602882339F482E08093170281E0F9
:100710008093150209C080911302882329F481E097
:100720008093170210921502909117028091140283
:10073000981739F081E08093FC0180911702809333
:1007400014029F918F910F900FBE0F901F901895DC
:100750000F931F938091FC01882309F440C01092ED
:10076000FC01809115029091FB01882389F0A92F4B
:10077000B0E0A452BE4F8C91E82FF0E0E931F105D2
:1007800074F58F5F8C93EE0FFF1FE655FE4F0FC081
:10079000A92FB0E0A452BE4F8C91E82FF0E0309723
:1007A000F1F081508C93EE0FFF1FEA55FE4F008150
:1007B0001181F80180810E940B02F80181810E9461
:1007C0000B0281E06091F1010E943702F801828101
:1007D0000E940B0280E06091F1010E9437021F919C
:1007E0000F91089597FB092E05260ED057FD04D0D2
:1007F00014D00AD0001C38F45095409530952195BE
:100800003F4F4F4F5F4F0895F6F790958095709545
:1008100061957F4F8F4F9F4F0895A1E21A2EAA1B1B
:10082000BB1BFD010DC0AA1FBB1FEE1FFF1FA217A0
:10083000B307E407F50720F0A21BB30BE40BF50B9D
:10084000661F771F881F991F1A9469F76095709526
:10085000809590959B01AC01BD01CF010895FB01EE
:10086000DC014150504048F001900D920020C9F742
:1008700001C01D9241505040E0F70895DC01CB01CA
:10088000FC01F999FECF06C0F2BDE1BDF89A3196A0
:1008900000B40D9241505040B8F70895DC01A40F08
:1008A000B51F4150504048F0CB01840F951F2E9149
:1008B0000E945F0441505040D0F70895262FF999C7
:1008C000FECF92BD81BDF89A019700B4021639F0AF
:1008D0001FBA20BD0FB6F894FA9AF99A0FBE089580
:0408E000F894FFCFBA
:1008E4004361726F6C204C69616E67000000830085
:1008F4008B0093009C00A500B000B900C400D00098
:10090400DC00E900F70006011501260137014A0160
:100914005D01720188019F01B801D201EE010B0251
:10092400202020004320330043233300442033009D
:10093400442333004520330046203300462333004C
:100944004720330047233300412033004123330041
:100954004220330043203400432334004420340035
:100964004423340045203400462034004623340018
:10097400472034004723340041203400412334000D
:1009840042203400432035004001440148014C0119
:100994005001540158015C016001640168016C015B
:1009A4007001740178017C018001840188018C014B
:1009B4009001940198019C01A001A4011111121449
:1009C4001412110F0D0D0F11110F0F000000000074
:0409D400000100001E
:00000001FF
