:100000000C9434000C9449000C9449000C94490061
:100010000C9449000C9449000C9449000C9449003C
:100020000C9449000C9449000C9449000C944C0029
:100030000C9449000C9449000C9449000C9449001C
:100040000C9449000C9449000C9449000C9449000C
:100050000C9449000C9449000C9449000C944900FC
:100060000C9449000C94490011241FBECFEFD8E036
:10007000DEBFCDBF11E0A0E0B1E0E2EDF1E002C0F3
:1000800005900D92AA34B107D9F70E944B000C9449
:10009000E7000C940000FFCF1F920F920FB60F9253
:1000A00011240F900FBE0F901F9018959BB19F7059
:1000B0009BB99BB1807F892B8BB9299A299A299862
:1000C00008951F93182F289A0E945600812F829519
:1000D000807F0E94560080E49FE10197F1F71F9115
:1000E0000895CF93DF93EC0102C00E9461008991D3
:1000F0008823D9F7DF91CF9108951F93182F28985F
:100100000E945600812F8295807F0E94560080E4D5
:100110009FE10197F1F71F910895882319F4862F25
:10012000805802C0862F80540E947D000895209A36
:10013000219A8AB1806F8AB980E69AEE0197F1F729
:1001400080E30E94560080E29EE40197F1F780E38D
:100150000E94560080EE91E00197F1F780E30E9443
:10016000560080E20E94560080E49FE10197F1F77B
:1001700088E20E947D008FE00E947D000895ECE7F8
:10018000F0E0808180648083808180628083EAE700
:10019000F0E080818760808380818068808308951B
:1001A00090917C00907F90937C0090917C008F7068
:1001B000892B80937C0080917A00806480937A0000
:1001C00080917A0086FDFCCF809179000895F894A3
:0201D000FFCF5F
:1001D200000083008B0093009C00A500B000B900D2
:1001E200C400D000DC00E900F70006011501260179
:1001F20037014A015D01720188019F01B801D201F4
:10020200EE010B02111112141412110F0D0D0F1128
:0A021200110F0F00000000000000B3
:00000001FF
