:100000000C9434000C9451000C9451000C94510049
:100010000C9451000C9451000C9451000C9451001C
:100020000C9451000C9451000C9451000C948700D6
:100030000C9451000C9451000C9451000C945100FC
:100040000C9451000C9451000C9451000C945100EC
:100050000C9451000C9451000C9451000C945100DC
:100060000C9451000C94510011241FBECFEFD8E026
:10007000DEBFCDBF11E0A0E0B1E0ECE8F3E002C0EC
:1000800005900D92A638B107D9F711E0A6E8B1E0C6
:1000900001C01D92AC38B107E1F70E94D0000C946A
:1000A000C4010C940000EFE6F0E080818260808360
:1000B000E1E8F0E0808188608083789408950F9370
:1000C0001F938C019C01220F331F40E050E060E938
:1000D00070ED83E090E00E948701309389002093C7
:1000E00088001093890100938801809181008360CA
:1000F0008093810080918A0190918B010197D1F7C3
:1001000010928B0110928A011F910F9108951F92F6
:100110000F920FB60F9211242F933F938F939F93BB
:1001200085B190E1892785B98091860190918701F9
:1001300001969093870180938601209188013091E8
:1001400089012817390754F410928701109286010B
:1001500081E090E090938B0180938A019F918F9131
:100160003F912F910F900FBE0F901F90189580E038
:1001700091E00E94110180E197E220E931E0F9016C
:100180003197F1F70197D9F781E00E941D0180E0D6
:1001900060E00E942D0185E591E00E941101089523
:1001A000CF93DF930E9437010E945F0181E00E949C
:1001B0001D01249A15B888B1826288B980916F00B8
:1001C000826080936F0080918100886080938100BD
:1001D00078940E94B700CCE0D1E0899199910E9477
:1001E0005F0081E0C633D807C1F7FFCF9BB19F7096
:1001F0009BB99BB1807F892B8BB9299A299A299821
:1002000008951F93182F289A0E94F600812F829537
:10021000807F0E94F60080E49FE10197F1F71F9133
:100220000895CF93DF93EC0102C00E9401018991F0
:100230008823D9F7DF91CF9108951F93182F28981D
:100240000E94F600812F8295807F0E94F60080E454
:100250009FE10197F1F71F910895882319F4862FE4
:10026000805802C0862F80540E941D010895209A54
:10027000219A8AB1806F8AB980E69AEE0197F1F7E8
:1002800080E30E94F60080E29EE40197F1F780E3AC
:100290000E94F60080EE91E00197F1F780E30E9462
:1002A000F60080E20E94F60080E49FE10197F1F7FA
:1002B00088E20E941D018FE00E941D010895ECE775
:1002C000F0E0808180648083808180628083EAE7BF
:1002D000F0E08081876080838081806880830895DA
:1002E00090917C00907F90937C0090917C008F7027
:1002F000892B80937C0080917A00806480937A00BF
:1003000080917A0086FDFCCF80917900089597FB5B
:10031000092E05260ED057FD04D014D00AD0001C9B
:1003200038F450954095309521953F4F4F4F5F4F92
:100330000895F6F790958095709561957F4F8F4F52
:100340009F4F0895A1E21A2EAA1BBB1BFD010DC0F1
:10035000AA1FBB1FEE1FFF1FA217B307E407F50775
:1003600020F0A21BB30BE40BF50B661F771F881F51
:10037000991F1A9469F760957095809590959B01E7
:0C038000AC01BD01CF010895F894FFCF3F
:10038C004361726F6C204C69616E670000008300E2
:10039C008B0093009C00A500B000B900C400D000F5
:1003AC00DC00E900F70006011501260137014A01BE
:1003BC005D01720188019F01B801D201EE010B02AF
:1003CC00111112141412110F0D0D0F11110F0F002A
:1003DC0000000000002045204520462047204720F3
:1003EC00462045203E3C44204320432044204520C9
:1003FC00452044203E3C44204420442044204420BA
:06040C0044200000000086
:00000001FF
