:100000000C9434000C9451000C9451000C94510049
:100010000C9453000C9451000C9451000C9451001A
:100020000C9451000C9451000C9451000C94480114
:100030000C9451000C9451000C9451000C945100FC
:100040000C9451000C9451000C9451000C945100EC
:100050000C9451000C9451000C9451000C945100DC
:100060000C9451000C94510011241FBECFEFD8E026
:10007000DEBFCDBF11E0A0E0B1E0E8EEF6E002C0E7
:1000800005900D92A43FB107D9F712E0A4EFB1E0BB
:1000900001C01D92A333B107E1F70E9482020C94C4
:1000A00072030C9400001F920F920FB60F9211244E
:1000B0008F939F9386B18093FD018091FD018270A3
:1000C000809301028091FD0180728093FE018091F6
:1000D000FF01882371F480910102882321F081E0DF
:1000E0008093020234C08091FE018823E1F182E016
:1000F00036C09091FF01913089F4809101028823EC
:1001000019F4109202022DC08091FE01882359F14A
:1001100083E0809302029093000225C08091FF014A
:10012000823069F480910102882311F083E017C0C6
:100130008091FE018823B9F41092020207C08091D9
:100140000102882339F482E08093020281E08093E7
:10015000000209C08091FE01882329F481E0809388
:10016000020210920002909102028091FF01981702
:1001700039F081E08093FC01809102028093FF01BD
:100180009F918F910F900FBE0F901F901895419ADD
:10019000459A8091680082608093680080916C002D
:1001A000826280936C00789486B18093FD01809187
:1001B000FD018270809301028091FD018072809325
:1001C000FE018091FE01882339F480910102882389
:1001D00019F41092FF0117C08091FE01882331F4B9
:1001E00080910102882311F081E00BC08091FE0113
:1001F000882331F080910102882311F482E001C04C
:1002000083E08093FF018091FF01809302020895B3
:10021000EFE6F0E0808182608083E1E8F0E08081B9
:100220008860808378940895CF93DF93EC010097E2
:1002300051F488E893E120E931E0F9013197F1F7D1
:100240000197D9F722C09C01220F331F40E050E0F4
:1002500060E970ED83E090E00E94350330938900FF
:1002600020938800D093F701C093F601809181001C
:100270008360809381008091F8019091F90101974A
:10028000D1F71092F9011092F801DF91CF91089502
:100290001F920F920FB60F9211242F933F938F93BB
:1002A0009F9385B190E1892785B98091F401909160
:1002B000F50101969093F5018093F4012091F601E8
:1002C0003091F7012817390754F41092F501109274
:1002D000F40181E090E09093F9018093F8019F91FF
:1002E0008F913F912F910F900FBE0F901F901895F7
:1002F00080E091E00E94BF0280E197E220E931E0D6
:10030000F9013197F1F70197D9F781E00E94CB020B
:1003100080E060E00E94DB020895CF93DF9380E0ED
:100320000E941E038E5C8930F0F480ED97E020E996
:1003300031E0F9013197F1F70197D9F7CCEDD1E030
:10034000E991F0E0EE0FFF1FE45FFE4F80819181A5
:100350000E941401809181008C7F8093810081E054
:10036000C13FD80769F7DF91CF91089580E00E94DF
:100370001E0381508D3148F480ED97E020E931E093
:10038000F9013197F1F70197D9F70895FF920F938B
:10039000DF93CF9300D0CDB7DEB72091FA01309133
:1003A000FB01C90133E0880F991F3A95E1F7F82E58
:1003B000F21A01E0EF2DF0E0E452FE4FE081F0E0B0
:1003C000EE0FFF1FE855FE4F808191819A8389834C
:1003D00080E0602F0E94DB02A981BA818C910E948B
:1003E000AF02E981FA8181810E94AF0281E0602F32
:1003F0000E94DB02A981BA8112968C910E94AF0201
:10040000F3940E5F0F30B1F60F900F90CF91DF9104
:100410000F91FF900895CF93DF9380E00E941E0319
:10042000982F81508D3178F580ED97E020E931E00B
:10043000F9013197F1F70197D9F78091F101909186
:10044000F20102969093F2018093F10140970CF42F
:1004500051C0C1E0D0E0D093F201C093F10180E03F
:1004600060E00E94DB028091FA019091FB0100970D
:1004700029F4D093FB01C093FA013AC00197D1F55A
:1004800082E090E031C09B599530C8F580ED97E04F
:1004900020E931E0F9013197F1F70197D9F780911F
:1004A000F1019091F20102979093F2018093F10192
:1004B00097FF20C08FE090E09093F2018093F101CC
:1004C00080E060E00E94DB028091FA019091FB01E4
:1004D0008130910529F41092FB011092FA0108C0B5
:1004E000029741F481E090E09093FB018093FA0140
:1004F0000E94C60180E06091F1010E94DB02DF9161
:10050000CF9108950E94E5020E940D0381E00E94B0
:10051000CB02249A15B888B1826288B980916F00A5
:10052000826080936F008091810088608093810059
:1005300078940E94C7000E94C60180E061E00E949A
:10054000DB020E940B02FDCF9BB19F709BB99BB158
:10055000807F892B8BB9299A299A299808951F930E
:10056000182F289A0E94A402812F8295807F0E94D2
:10057000A40280E49FE10197F1F71F910895CF93C2
:10058000DF93EC0102C00E94AF0289918823D9F762
:10059000DF91CF9108951F93182F28980E94A402ED
:1005A000812F8295807F0E94A40280E49FE10197C1
:1005B000F1F71F910895882319F4862F805802C0FF
:1005C000862F80540E94CB020895209A219A8AB1E6
:1005D000806F8AB980E69AEE0197F1F780E30E9476
:1005E000A40280E29EE40197F1F780E30E94A40256
:1005F00080EE91E00197F1F780E30E94A40280E28F
:100600000E94A40280E49FE10197F1F788E20E9432
:10061000CB028FE00E94CB020895ECE7F0E08081EE
:1006200080648083808180628083EAE7F0E080815B
:1006300087608083808180688083089590917C00AA
:10064000907F90937C0090917C008F70892B809399
:100650007C0080917A00806480937A0080917A0097
:1006600086FDFCCF80917900089597FB092E052621
:100670000ED057FD04D014D00AD0001C38F4509589
:100680004095309521953F4F4F4F5F4F0895F6F7B6
:1006900090958095709561957F4F8F4F9F4F0895EE
:1006A000A1E21A2EAA1BBB1BFD010DC0AA1FBB1F76
:1006B000EE1FFF1FA217B307E407F50720F0A21BE8
:1006C000B30BE40BF50B661F771F881F991F1A9455
:1006D00069F760957095809590959B01AC01BD017F
:0806E000CF010895F894FFCF4B
:1006E8004361726F6C204C69616E67000000830083
:1006F8008B0093009C00A500B000B900C400D00096
:10070800DC00E900F70006011501260137014A015E
:100718005D01720188019F01B801D201EE010B024F
:10072800202020004320330043233300442033009B
:10073800442333004520330046203300462333004A
:10074800472033004723330041203300412333003F
:100758004220330043203400432334004420340033
:100768004423340045203400462034004623340016
:10077800472034004723340041203400412334000B
:1007880042203400432035004001440148014C0117
:100798005001540158015C016001640168016C0159
:1007A8007001740178017C018001840188018C0149
:1007B8009001940198019C01A001A4011111121447
:1007C8001412110F0D0D0F11110F0F000000000072
:0407D800000100001C
:00000001FF
