:100000000C9434000C9451000C9451000C94510049
:100010000C9453000C9451000C9451000C9451001A
:100020000C9451000C9451000C9451000C94FB0062
:100030000C9451000C9451000C9451000C945100FC
:100040000C9451000C9451000C9451000C945100EC
:100050000C9451000C9451000C9451000C945100DC
:100060000C9451000C94510011241FBECFEFD8E026
:10007000DEBFCDBF11E0A0E0B1E0EEEEF6E002C0E1
:1000800005900D92A23AB107D9F711E0A2EAB1E0CA
:1000900001C01D92A13BB107E1F70E94C9010C9478
:1000A00075030C9400001F920F920FB60F9211244B
:1000B0008F939F9386B18093AB018091AB01827047
:1000C0008093AF018091AB0180728093AC018091ED
:1000D000AD01882371F48091AF01882321F081E084
:1000E0008093B00134C08091AC018823E1F182E0BB
:1000F00036C09091AD01913089F48091AF01882391
:1001000019F41092B0012DC08091AC01882359F1EF
:1001100083E08093B0019093AE0125C08091AD0142
:10012000823069F48091AF01882311F083E017C019
:100130008091AC018823B9F41092B00107C080917E
:10014000AF01882339F482E08093B00181E080938D
:10015000AE0109C08091AC01882329F481E080932D
:10016000B0011092AE019091B0018091AD0198174D
:1001700039F081E08093AA018091B0018093AD01B4
:100180009F918F910F900FBE0F901F901895EFE6E3
:10019000F0E0808182608083E1E8F0E08081886027
:1001A0008083789408950F931F938C019C01220FF4
:1001B000331F40E050E060E970ED83E090E00E9482
:1001C000240330938900209388001093A5010093A5
:1001D000A401809181008360809381008091A601B9
:1001E0009091A7010197D1F71092A7011092A60153
:1001F0001F910F9108951F920F920FB60F92112425
:100200002F933F938F939F9385B190E1892785B971
:100210008091A2019091A30101969093A3018093F4
:10022000A2012091A4013091A5012817390754F4A7
:100230001092A3011092A20181E090E09093A70197
:100240008093A6019F918F913F912F910F900FBEA8
:100250000F901F90189580E091E00E949B0280E132
:1002600097E220E931E0F9013197F1F70197D9F7E9
:1002700081E00E94A70280E060E00E94B7028FE662
:1002800091E00E949B02089580E00E94FA02982F5C
:1002900081508D3108F03CC080ED97E020E931E0DD
:1002A000F9013197F1F70197D9F780919F0190916A
:1002B000A00102969093A00180939F01409714F1B2
:1002C00081E090E09093A00180939F0180E060E046
:1002D0000E94B7028091A8019091A901009719F49A
:1002E0008FE791E004C0019769F48FE891E00E94E4
:1002F0009B028091A8019091A90101969093A90178
:100300008093A80180E060919F010E94B702089548
:100310009B59953008F03CC080ED97E020E931E032
:10032000F9013197F1F70197D9F780919F019091E9
:10033000A00102979093A00180939F0197FF23C093
:100340008FE090E09093A00180939F0180E060E0B7
:100350000E94B7028091A8019091A9018130910576
:1003600019F48FE691E004C0029769F48FE791E0F9
:100370000E949B028091A8019091A90101979093FE
:10038000A9018093A80180E060919F010E94B702BB
:1003900008950F931F93CF93DF930E94C1020E9491
:1003A000E90281E00E94A702249A15B888B182620E
:1003B00088B980916F00826080936F008091810086
:1003C0008860809381007894419A459A8091680072
:1003D00082608093680080916C00826280936C00E0
:1003E000789486B18093AB018091AB018270809349
:1003F000AF018091AB0180728093AC018091AC0120
:10040000882339F48091AF01882319F41092AD014B
:1004100017C08091AC01882331F48091AF0188230B
:1004200011F081E00BC08091AC01882331F0809104
:10043000AF01882311F482E001C083E08093AD0115
:100440008091AD018093B0010E942B0180E061E0BA
:100450000E94B7020E9444018091AA018823D1F32F
:100460001092AA018091AE01C091A801D091A9017A
:1004700000919F011091A0018823D1F09E0144E0DA
:10048000220F331F4A95E1F7C9018C1B9D0B800F8A
:10049000911F62E070E00E941103FB01EC1BFD0B59
:1004A000E65AFE4FE081F0E0E05CFE4F818119C02A
:1004B0009E0194E0220F331F9A95E1F7C9018C1B2E
:1004C0009D0B800F911F62E070E00E941103FB0101
:1004D000EC1BFD0BE65AFE4FE081F0E0E15CFE4FC5
:1004E0008081200F311F21593E4FF90180839927C8
:1004F00087FD90950E949B0280E060919F01A8CFAC
:100500009BB19F709BB99BB1807F892B8BB9299A36
:10051000299A299808951F93182F289A0E948002DB
:10052000812F8295807F0E94800280E49FE1019765
:10053000F1F71F910895CF93DF93EC0102C00E9461
:100540008B0289918823D9F7DF91CF9108951F936A
:10055000182F28980E948002812F8295807F0E9408
:10056000800280E49FE10197F1F71F9108958823AD
:1005700019F4862F805802C0862F80540E94A7024B
:100580000895209A219A8AB1806F8AB980E69AEEFE
:100590000197F1F780E30E94800280E29EE40197D8
:1005A000F1F780E30E94800280EE91E00197F1F77D
:1005B00080E30E94800280E20E94800280E49FE14A
:1005C0000197F1F788E20E94A7028FE00E94A7023C
:1005D0000895ECE7F0E08081806480838081806210
:1005E0008083EAE7F0E08081876080838081806893
:1005F0008083089590917C00907F90937C009091EF
:100600007C008F70892B80937C0080917A008064BD
:1006100080937A0080917A0086FDFCCF80917900EA
:10062000089597FB092E07260AD077FD04D027D01E
:1006300006D000201AF4709561957F4F0895F6F763
:10064000909581959F4F089597FB092E05260ED012
:1006500057FD04D028D00AD0001C38F4509540959E
:10066000309521953F4F4F4F5F4F0895F6F7909586
:100670008095709561957F4F8F4F9F4F0895AA1B6E
:10068000BB1B51E107C0AA1FBB1FA617B70710F07D
:10069000A61BB70B881F991F5A95A9F780959095AF
:1006A000BC01CD010895A1E21A2EAA1BBB1BFD01BE
:1006B0000DC0AA1FBB1FEE1FFF1FA217B307E40741
:1006C000F50720F0A21BB30BE40BF50B661F771F99
:1006D000881F991F1A9469F7609570958095909579
:0E06E0009B01AC01BD01CF010895F894FFCF3E
:1006EE004361726F6C204C69616E6700000083007D
:1006FE008B0093009C00A500B000B900C400D00090
:10070E00DC00E900F70006011501260137014A0158
:10071E005D01720188019F01B801D201EE010B0249
:10072E0020434344444546464747414142434344A0
:10073E004445464647474141424311111214141293
:10074E00110F0D0D0F11110F0F00000000000020F2
:10075E0045204520462047204720462045203E3C48
:10076E0044204320432044204520452044203E3C45
:10077E004420202020202020202020202020200166
:02078E00000069
:00000001FF
